:100000000C942A000C9447000C9447000C94470071
:100010000C9447000C9447000C9447000C94470044
:100020000C9447000C9447000C9447000C94470034
:100030000C9447000C9447000C9447000C94470024
:100040000C9447000C9447000C9447000C94470014
:100050000C94470011241FBECFE5D4E0DEBFCDBF16
:1000600010E0A0E6B0E0E6EBF5E002C005900D92EE
:10007000A238B107D9F720E0A2E8B0E001C01D9294
:10008000A439B207E1F70E946B020C94D9020C94D8
:10009000000084B3876F84BB85B3807885BB0895E7
:1000A00089EF90E00197F1F700C00000A898A998A7
:1000B00080E385BBAA9AE1EEF4E03197F1F700C046
:1000C0000000AA98E9EFF0E03197F1F700C00000D6
:1000D000A898A99885BBAA9AE1EEF4E03197F1F7C8
:1000E00000C00000AA98E9EFF0E03197F1F700C0F6
:1000F0000000A898A99885BBAA9A81EE94E0019780
:10010000F1F700C00000AA98E9EFF0E03197F1F7AD
:1001100000C00000A898A99880E285BBAA9A81EE49
:1001200094E00197F1F700C00000AA98089595B3F4
:100130009F7095BB95B3282F207F922B95BBA898D5
:10014000A998AA9AE1EEF4E03197F1F700C0000017
:10015000AA9895B39F7095BB95B38295807F892BA4
:1001600085BBA898A998AA9A81EE94E00197F1F727
:1001700000C00000AA98089589EF90E00197F1F778
:1001800000C0000088E20E94970081E00E94970072
:1001900086E00E9497008EE00E94970080E80E940F
:1001A0009700089595B39F7095BB95B3282F207F36
:1001B000922B95BBA89AA998AA9AE1EEF4E0319700
:1001C000F1F700C00000AA9895B39F7095BB95B356
:1001D0008295807F892B85BBA89AA998AA9A81EEDF
:1001E00094E00197F1F700C00000AA98089580E814
:1001F0000E9497000895CF93DF93EC0188818823B4
:1002000031F021960E94D20089918111FBCFDF91BC
:10021000CF910895823071F018F4813031F0089553
:10022000833069F0843081F008958FE7860F0E9453
:10023000970008958FEB860F0E949700089583E939
:10024000860F0E949700089583ED860F0E94970005
:1002500008950F931F93CF93DF938A01E9018823B9
:1002600011F0611103C00E94F70002C00E940A0150
:10027000C530D105C9F49801329522952F702327F6
:100280003F702327A7E4B3E00E94CA0296958795A2
:100290009695879596958795C096909384008093C0
:1002A00083000E94D20004C0C430D10509F0C3C04D
:1002B0009801369527953695279536952795A5EC7F
:1002C000B0E20E94CA02AC01529542954F70452798
:1002D0005F70452750938700409386009A01ADECEC
:1002E000BCEC0E94CA02969587959695879596953F
:1002F00087959C01220F331F880F991F880F991F24
:10030000880F991F820F931F9A01281B390BC9016F
:10031000C09690939300809392000E94D20098011F
:100320003695279536952795ABE7B4E10E94CA022A
:10033000AC015695479550938700409386009A01EB
:10034000ADECBCEC0E94CA02969587959695879570
:10035000969587959C01220F331F880F991F880F50
:10036000991F880F991F820F931F9A01281B390B21
:10037000C901C09690938F0080938E000E94D20096
:1003800004C0C230D10509F05BC09801ADECBCECF3
:100390000E94CA02AC0156954795569547955695C9
:1003A000479550938700409386009A010E94CA02A5
:1003B0009695879596958795969587959C01220F9A
:1003C000331F880F991F880F991F880F991F820F5D
:1003D000931F9A01281B390BC901C09690938D0079
:1003E00080938C000E94D2009801ADECBCEC0E947E
:1003F000CA029695879596958795969587959C01BF
:10040000220F331F880F991F880F991F880F991F7C
:10041000820F931F9801281B390BC901C096909336
:100420009100809390000E94D20026976CF085E4A2
:100430000E94D20009C0C330D10509F0A2CF6FCF0E
:10044000C130D10591F7D0CFDF91CF911F910F919E
:10045000089587B38F6087BB88B3807F88BB81B3E3
:10046000806381BB82B3806382BB089516B880E24B
:1004700087B980E888B986E886B908951ABA1BBAA0
:1004800008958770806287B9369A349BFECF85B114
:10049000349A08951EBC8FEF8DBD91E09CBD1BBCAE
:1004A0008ABD19BC88BD17BC86BD81EA8FBD8DE0B1
:1004B0008EBD0895F8940E9449000E9436020E9461
:1004C0003E020E944A020E94290278940E94500033
:1004D0000E94BC0008950E945A020E94BC0082E65D
:1004E00090E00E94FB002FE382E49FE021508040D7
:1004F0009040E1F700C000000E94F70083E790E021
:100500000E94FB00C0E6D0E084E00E94410290E03F
:10051000088002C0959587950A94E2F7809382003F
:1005200083E00E94410290E0088002C09595879583
:100530000A94E2F78093850085E00E94410290E0F2
:10054000088002C0959587950A94E2F78093880009
:100550004091850050E023E030E061E082E00E94BD
:1005600029014091820050E023E030E065E082E024
:100570000E9429014091880050E023E030E069E0CA
:1005800082E00E94290183EC99E00197F1F700C015
:100590000000BACFA29FB001B39FC001A39F700D0E
:1005A000811D1124911DB29F700D811D1124911D7B
:0605B0000895F894FFCF4E
:1005B60001005374617274696E6720535041524B47
:1005C60020560043616C6962726174696E6721200E
:0205D600200003
:00000001FF
