:100000000C942A000C9447000C9447000C94470071
:100010000C9447000C9447000C9447000C94470044
:100020000C9447000C9447000C9447000C94470034
:100030000C9447000C9447000C9447000C94470024
:100040000C9447000C9447000C9447000C94470014
:100050000C94470011241FBECFE5D4E0DEBFCDBF16
:1000600010E0A0E6B0E0EEE2FBE002C005900D92E9
:10007000AC38B107D9F720E0ACE8B0E001C01D9280
:10008000AC3BB207E1F70E9473020C9495050C9407
:10009000000084B3876F84BB85B3807885BB0895E7
:1000A00089EF90E00197F1F700C00000A898A998A7
:1000B00080E385BBAA9AE1EEF4E03197F1F700C046
:1000C0000000AA98E9EFF0E03197F1F700C00000D6
:1000D000A898A99885BBAA9AE1EEF4E03197F1F7C8
:1000E00000C00000AA98E9EFF0E03197F1F700C0F6
:1000F0000000A898A99885BBAA9A81EE94E0019780
:10010000F1F700C00000AA98E9EFF0E03197F1F7AD
:1001100000C00000A898A99880E285BBAA9A81EE49
:1001200094E00197F1F700C00000AA98089595B3F4
:100130009F7095BB95B3282F207F922B95BBA898D5
:10014000A998AA9AE1EEF4E03197F1F700C0000017
:10015000AA9895B39F7095BB95B38295807F892BA4
:1001600085BBA898A998AA9A81EE94E00197F1F727
:1001700000C00000AA98089589EF90E00197F1F778
:1001800000C0000088E20E94970081E00E94970072
:1001900086E00E9497008EE00E94970080E80E940F
:1001A0009700089595B39F7095BB95B3282F207F36
:1001B000922B95BBA89AA998AA9AE1EEF4E0319700
:1001C000F1F700C00000AA9895B39F7095BB95B356
:1001D0008295807F892B85BBA89AA998AA9A81EEDF
:1001E00094E00197F1F700C00000AA98089580E814
:1001F0000E9497000895CF93DF93EC0188818823B4
:1002000031F021960E94D20089918111FBCFDF91BC
:10021000CF9108951BBC8ABD19BC68BD089587B3F2
:100220008F6087BB88B3807F88BB81B3806381BBCD
:1002300082B3806382BB089598B3907F8F70982BB0
:1002400098BB089586E00E941C01089585E00E94F5
:100250001C0108958AE00E941C01089584E00E9418
:100260001C01089582E00E941C01089516B880E2E6
:1002700087B980E888B986E886B908951ABA1BBAA2
:1002800008958770806287B9369A349BFECF85B116
:10029000349A08951EBC8FEF8DBD91E09CBD1BBCB0
:1002A0008ABD19BC88BD17BC86BD81EA8FBD8DE0B3
:1002B0008EBD0895F8940E9449000E9436010E9464
:1002C0003E010E944A010E940F0178940E94500052
:1002D0000E94BC0008958F929F92AF92BF92CF92DE
:1002E000DF92EF92FF92CF93DF9383E00E94410170
:1002F00090E0CAE6D0E0088002C0959587950A9400
:10030000E2F78093AD0085E00E94410190E0088013
:1003100002C0959587950A94E2F78093B00084E037
:100320000E94410190E0088002C0959587950A944B
:10033000E2F7C82F8093AA006091AD0070E0809131
:10034000B000681B710916161706DCF5072E000CA5
:10035000880B990B0E9473046B017C018090A200B2
:100360009090A300A090A400B090A50020E030E001
:1003700040EC5FE3C501B4010E94C9039B01AC01DD
:10038000C701B6010E94FF0418161CF40E94260142
:1003900055C020E030E040EA50E4C501B4010E94BD
:1003A000C9039B01AC01C701B6010E94FF041816E6
:1003B0002CF4C23318F40E942E0140C00E94220186
:1003C0003DC0719561957109072E000C880B990B42
:1003D0000E9473046B017C018090A2009090A300A6
:1003E000A090A400B090A50020E030E040EC5FE3D6
:1003F000C501B4010E94C9039B01AC01C701B6014C
:100400000E94FF0418161CF40E942A0117C020E065
:1004100030E040EA50E4C501B4010E94C9039B01E9
:10042000AC01C701B6010E94FF0418162CF4C233B8
:1004300018F40E94320102C00E9422012091AD00F6
:100440008091B00090E0820F911D893791050CF4E6
:100450003FC08091AA008233A8F50E94260181E066
:1004600090E090938D0080938C002FE38DE093E0DB
:10047000215080409040E1F700C0000080918C0046
:1004800090918D00019721F52091AD008091B000F1
:1004900090E0820F911D89379105D4F08091AA00D8
:1004A0008333B0F00E94260110928D0010928C00D0
:1004B0002FE986E891E0215080409040E1F700C0AC
:1004C000000006C080918C0090918D00019731F35F
:1004D000DF91CF91FF90EF90DF90CF90BF90AF90E2
:1004E0009F908F9008950E945A010E94BC008CE654
:1004F00090E00E94FB002FE382E49FE021508040C7
:100500009040E1F700C000000E94F7008DE790E006
:100510000E94FB0080E090E0A4EBB2E48093A20094
:100520009093A300A093A400B093A5000E94BC00E8
:100530000E94220180916800682F0E940A010AE649
:1005400010E084E00E944101682F70E0F801008013
:1005500002C0759567950A94E2F76093AA00772721
:10056000072E000C880B990B0E9473049B01AC01B1
:100570006091A2007091A3008091A4009091A500C9
:100580000E945C036B017C016093A6007093A7003E
:100590008093A8009093A90020919A0030919B002D
:1005A00040919C0050919D000E945D032B013C01F5
:1005B00060939A0070939B0080939C0090939D00A1
:1005C00020919E0030919F004091A0005091A10089
:1005D000C701B6010E945C034B015C016093960069
:1005E00070939700809398009093990020916400F5
:1005F000309165004091660050916700C701B601D7
:100600000E9404050E943B04EB01DD2324F4CC2767
:10061000DD27C61BD70B20918E0030918F004091B3
:10062000900050919100C301B2010E9404050E9404
:100630003B049B01772324F422273327261B370B07
:10064000C20FD31FBE01DD0F880B990B0E947304EC
:100650002B013C01209160003091610040916200CB
:1006600050916300C501B4010E9404059B01AC01D7
:10067000C301B2010E945D039B01AC016093920033
:10068000709393008093940090939500C0929E0085
:10069000D0929F00E092A000F092A10060E070E094
:1006A00086E693E40E945C030E944204862F0E9427
:1006B0000A010E946B0145CF5058BB27AA270E9410
:1006C00074030C94C5040E94B70438F00E94BE0461
:1006D00020F039F49F3F19F426F40C94B4040EF47E
:1006E000E095E7FB0C94AE04E92F0E94D60458F382
:1006F000BA17620773078407950720F079F4A6F507
:100700000C94F8040EF4E0950B2EBA2FA02D0B01DB
:10071000B90190010C01CA01A0011124FF27591B46
:1007200099F0593F50F4503E68F11A16F040A22F4C
:10073000232F342F4427585FF3CF469537952795BD
:10074000A795F0405395C9F77EF41F16BA0B620BBC
:10075000730B840BBAF09150A1F0FF0FBB1F661F03
:10076000771F881FC2F70EC0BA0F621F731F841F46
:1007700048F4879577956795B795F7959E3F08F06C
:10078000B0CF9395880F08F09927EE0F979587952E
:1007900008950E94DD030C94C5040E94BE0458F025
:1007A0000E94B70440F029F45F3F29F00C94AE0496
:1007B00051110C94F9040C94B4040E94D60468F30B
:1007C0009923B1F3552391F3951B550BBB27AA270A
:1007D00062177307840738F09F5F5F4F220F331F44
:1007E000441FAA1FA9F335D00E2E3AF0E0E832D00C
:1007F00091505040E695001CCAF72BD0FE2F29D00F
:10080000660F771F881FBB1F261737074807AB07E0
:10081000B0E809F0BB0B802DBF01FF2793585F4F55
:100820003AF09E3F510578F00C94AE040C94F90414
:100830005F3FE4F3983ED4F3869577956795B79537
:10084000F7959F5FC9F7880F911D9695879597F942
:100850000895E1E0660F771F881FBB1F62177307BB
:100860008407BA0720F0621B730B840BBA0BEE1FD0
:1008700088F7E09508950E9442046894B1110C94A1
:10088000F90408950E94DE0488F09F5798F0B92F6C
:100890009927B751B0F0E1F0660F771F881F991FB5
:1008A0001AF0BA95C9F714C0B13091F00E94F8045B
:1008B000B1E008950C94F804672F782F8827B85F6B
:1008C00039F0B93FCCF3869577956795B395D9F70D
:1008D0003EF490958095709561957F4F8F4F9F4F17
:1008E0000895E89409C097FB3EF490958095709523
:1008F00061957F4F8F4F9F4F9923A9F0F92F96E96C
:10090000BB279395F695879577956795B795F111E0
:10091000F8CFFAF4BB0F11F460FF1BC06F5F7F4F7D
:100920008F4F9F4F16C0882311F096E911C077238F
:1009300021F09EE8872F762F05C0662371F096E898
:10094000862F70E060E02AF09A95660F771F881F67
:10095000DAF7880F9695879597F9089597F99F6725
:1009600080E870E060E008959FEF80EC0895002437
:100970000A941616170618060906089500240A9404
:1009800012161306140605060895092E0394000C8A
:1009900011F4882352F0BB0F40F4BF2B11F460FF19
:1009A00004C06F5F7F4F8F4F9F4F089557FD905842
:1009B000440F551F59F05F3F71F04795880F97FB23
:1009C000991F61F09F3F79F08795089512161306DD
:1009D0001406551FF2CF4695F1DF08C0161617060C
:1009E0001806991FF1CF8695710561050894089541
:1009F000E894BB2766277727CB0197F908950E94D3
:100A0000710508F48FEF08950E9417050C94C50432
:100A10000E94B70438F00E94BE0420F0952311F024
:100A20000C94AE040C94B40411240C94F9040E94A8
:100A3000D60470F3959FC1F3950F50E0551F629F48
:100A4000F001729FBB27F00DB11D639FAA27F00D27
:100A5000B11DAA1F649F6627B00DA11D661F829F4E
:100A60002227B00DA11D621F739FB00DA11D621F33
:100A7000839FA00D611D221F749F3327A00D611D50
:100A8000231F849F600D211D822F762F6A2F112432
:100A90009F5750409AF0F1F088234AF0EE0FFF1F65
:100AA000BB1F661F771F881F91505040A9F79E3FBC
:100AB000510580F00C94AE040C94F9045F3FE4F30C
:100AC000983ED4F3869577956795B795F795E79512
:100AD0009F5FC1F7FE2B880F911D9695879597F91B
:100AE0000895990F0008550FAA0BE0E8FEEF1616BF
:100AF0001706E807F907C0F012161306E407F50712
:100B000098F0621B730B840B950B39F40A2661F085
:100B1000232B242B252B21F408950A2609F4A14028
:0E0B2000A6958FEF811D811D0895F894FFCFDB
:100B2E00000020410000C03FE600010053746172D6
:100B3E0074696E6720535041524B20560043616CCE
:0C0B4E006962726174696E6721202000EA
:00000001FF
