S01200006C696E65666F6C6C6F772E73726563D7
S11300000C942A000C9447000C9447000C9447006D
S11300100C9447000C9447000C9447000C94470040
S11300200C9447000C9447000C9447000C94470030
S11300300C9447000C9447000C9447000C94470020
S11300400C9447000C9447000C9447000C94470010
S11300500C94470011241FBECFE5D4E0DEBFCDBF12
S113006010E0A0E6B0E0E8E9F8E002C005900D92E7
S1130070AA37B107D9F720E0AAE7B0E001C01D9282
S1130080A03AB207E1F70E9421020C944A040C94AE
S1130090000084B3876F84BB85B3807885BB0895E3
S11300A089EF90E00197F1F700C00000A898A998A3
S11300B080E385BBAA9AE1EEF4E03197F1F700C042
S11300C00000AA98E9EFF0E03197F1F700C00000D2
S11300D0A898A99885BBAA9AE1EEF4E03197F1F7C4
S11300E000C00000AA98E9EFF0E03197F1F700C0F2
S11300F00000A898A99885BBAA9A81EE94E001977C
S1130100F1F700C00000AA98E9EFF0E03197F1F7A9
S113011000C00000A898A99880E285BBAA9A81EE45
S113012094E00197F1F700C00000AA98089595B3F0
S11301309F7095BB95B3282F207F922B95BBA898D1
S1130140A998AA9AE1EEF4E03197F1F700C0000013
S1130150AA9895B39F7095BB95B38295807F892BA0
S113016085BBA898A998AA9A81EE94E00197F1F723
S113017000C00000AA98089589EF90E00197F1F774
S113018000C0000088E20E94970081E00E9497006E
S113019086E00E9497008EE00E94970080E80E940B
S11301A09700089595B39F7095BB95B3282F207F32
S11301B0922B95BBA89AA998AA9AE1EEF4E03197FC
S11301C0F1F700C00000AA9895B39F7095BB95B352
S11301D08295807F892B85BBA89AA998AA9A81EEDB
S11301E094E00197F1F700C00000AA980895CF9316
S11301F0DF93EC018881882331F021960E94D2009C
S113020089918111FBCFDF91CF9108951BBC8ABDE9
S113021019BC68BD089587B38F6087BB88B3807F9E
S113022088BB81B3806381BB82B3806382BB089542
S113023098B3907F8F70982B98BB089586E00E94A6
S11302401801089589E00E941801089585E00E942C
S1130250180108958AE00E941801089516B880E2F2
S113026087B980E888B986E886B908951ABA1BBAAE
S113027008958770806287B9369A349BFECF85B122
S1130280349A08951EBC8FEF8DBD91E09CBD1BBCBC
S11302908ABD19BC88BD17BC86BD81EA8FBD8DE0BF
S11302A08EBD0895F8940E9449000E942E010E9478
S11302B036010E9442010E940B0178940E94500072
S11302C00E94BC0008950F931F93CF93DF93209156
S11302D0940030919100822F90E0831B91099093B8
S11302E08D0080938C0010927F0010927E0080918C
S11302F08E00853650F0243140F4343130F441E03E
S113030050E050938100409380008F3080F42F3070
S113031070F43F3060F46FE78FE70E9406010E949B
S1130320220181E090E090937F0080937E00809191
S11303308E008135C0F0809194008135A0F08091C9
S11303409100813580F0C5E0D0E001E010E06FE776
S11303508FE70E9406010E941E0110937F00009304
S11303607E002197A1F7809194008D33A0F08091B5
S113037091008D3380F080918E008F3060F46EEFA9
S11303808EEF0E9406010E941E0181E090E090938E
S11303907F0080937E00DF91CF911F910F9108958C
S11303A08091800090918100019759F46EEF8EEF57
S11303B00E9406010E941E0110928100109280008A
S11303C0089590919100809194008917E0F48091B0
S11303D07E0090917F00892B99F520E030E048EF72
S11303E051E4609182007091830080918400909127
S11303F085000E94B4020E942003862F0E940601F9
S11304000E94260108959817D8F480917E00909157
S11304107F00892BA9F420E030E048EF51E460919B
S113042082007091830080918400909185000E94E5
S1130430B4020E942003862F0E9406010E942A0112
S113044008950E94520188E690E00E94F7002FE38D
S11304508DE093E0215080409040E1F700C000001F
S11304600E94BC000E941E016EEF8EEF0E940601E6
S113047083E00E9439018093910084E00E94390155
S113048080938E0085E00E943901809394000E943D
S11304906301C0918C00D0918D00409188005091EF
S11304A089008E01040F151F1093890000938800A2
S11304B080918A0090918B007E01E81AF90AF092EB
S11304C08700E0928600BE010D2E000C880B990B6C
S11304D00E945103209164003091650040916600B0
S11304E0509167000E94DD034B015C01B801110FBC
S11304F0880B990B0E94510320917A0030917B0064
S113050040917C0050917D000E94DD039B01AC0171
S1130510C501B4010E94B4024B015C01B701FF0C98
S1130520880B990B0E945103209160003091610067
S113053040916200509163000E94DD039B01AC0175
S1130540C501B4010E94B4026093820070938300D9
S11305508093840090938500D0938B00C0938A008D
S11305600E94D00185CF5058BB27AA270E94CB02F6
S11305700C94A3030E94950338F00E949C0320F07E
S113058039F49F3F19F426F40C9492030EF4E09589
S1130590E7FB0C948C03E92F0E94B40358F3BA17B9
S11305A0620773078407950720F079F4A6F50C9485
S11305B0D6030EF4E0950B2EBA2FA02D0B01B90132
S11305C090010C01CA01A0011124FF27591B99F0C5
S11305D0593F50F4503E68F11A16F040A22F232FD1
S11305E0342F4427585FF3CF469537952795A79521
S11305F0F0405395C9F77EF41F16BA0B620B730BC8
S1130600840BBAF09150A1F0FF0FBB1F661F771F38
S1130610881FC2F70EC0BA0F621F731F841F48F4ED
S1130620879577956795B795F7959E3F08F0B0CF76
S11306309395880F08F09927EE0F9795879508955D
S11306400E94BC0388F09F5798F0B92F9927B7519F
S1130650B0F0E1F0660F771F881F991F1AF0BA9562
S1130660C9F714C0B13091F00E94D603B1E00895E7
S11306700C94D603672F782F8827B85F39F0B93FD9
S1130680CCF3869577956795B395D9F73EF4909515
S11306908095709561957F4F8F4F9F4F0895E89493
S11306A009C097FB3EF490958095709561957F4FB6
S11306B08F4F9F4F9923A9F0F92F96E9BB27939564
S11306C0F695879577956795B795F111F8CFFAF474
S11306D0BB0F11F460FF1BC06F5F7F4F8F4F9F4FA5
S11306E016C0882311F096E911C0772321F09EE803
S11306F0872F762F05C0662371F096E8862F70E069
S113070060E02AF09A95660F771F881FDAF7880F42
S11307109695879597F9089597F99F6780E870E013
S113072060E008959FEF80EC089500240A94161663
S1130730170618060906089500240A9412161306CB
S1130740140605060895092E0394000C11F4882359
S113075052F0BB0F40F4BF2B11F460FF04C06F5F75
S11307607F4F8F4F9F4F089557FD9058440F551F4B
S113077059F05F3F71F04795880F97FB991F61F01F
S11307809F3F79F087950895121613061406551F96
S1130790F2CF4695F1DF08C0161617061806991F02
S11307A0F1CF86957105610508940895E894BB27F7
S11307B066277727CB0197F908950E94F0030C94DC
S11307C0A3030E94950338F00E949C0320F0952314
S11307D011F00C948C030C94920311240C94D70301
S11307E00E94B40370F3959FC1F3950F50E0551F19
S11307F0629FF001729FBB27F00DB11D639FAA2772
S1130800F00DB11DAA1F649F6627B00DA11D661FC0
S1130810829F2227B00DA11D621F739FB00DA11DE1
S1130820621F839FA00D611D221F749F3327A00D9B
S1130830611D231F849F600D211D822F762F6A2F37
S113084011249F5750409AF0F1F088234AF0EE0F9C
S1130850FF1FBB1F661F771F881F91505040A9F7C9
S11308609E3F510580F00C948C030C94D7035F3F9A
S1130870E4F3983ED4F3869577956795B795F79505
S1130880E7959F5FC1F7FE2B880F911D969587957D
S10B089097F90895F894FFCFD5
S1130898000020410000E0405374617274696E677F
S10D08A820535041524B205600002B
S9030000FC
