S0120000636F6E74726F6C4C61622E7372656302
S11300000C942A000C9447000C9447000C9447006D
S11300100C9447000C9447000C9447000C94470040
S11300200C9447000C9447000C9447000C94470030
S11300300C9447000C9447000C9447000C94470020
S11300400C9447000C9447000C9447000C94470010
S11300500C94470011241FBECFE5D4E0DEBFCDBF12
S113006010E0A0E6B0E0E2E3FBE002C005900D92F0
S1130070A238B107D9F720E0A2E8B0E001C01D9290
S1130080A03AB207E1F70E940D030C9497050C9473
S1130090000084B3876F84BB85B3807885BB0895E3
S11300A089EF90E00197F1F700C00000A898A998A3
S11300B080E385BBAA9AE1EEF4E03197F1F700C042
S11300C00000AA98E9EFF0E03197F1F700C00000D2
S11300D0A898A99885BBAA9AE1EEF4E03197F1F7C4
S11300E000C00000AA98E9EFF0E03197F1F700C0F2
S11300F00000A898A99885BBAA9A81EE94E001977C
S1130100F1F700C00000AA98E9EFF0E03197F1F7A9
S113011000C00000A898A99880E285BBAA9A81EE45
S113012094E00197F1F700C00000AA98089595B3F0
S11301309F7095BB95B3282F207F922B95BBA898D1
S1130140A998AA9AE1EEF4E03197F1F700C0000013
S1130150AA9895B39F7095BB95B38295807F892BA0
S113016085BBA898A998AA9A81EE94E00197F1F723
S113017000C00000AA98089589EF90E00197F1F774
S113018000C0000088E20E94970081E00E9497006E
S113019086E00E9497008EE00E94970080E80E940B
S11301A09700089595B39F7095BB95B3282F207F32
S11301B0922B95BBA89AA998AA9AE1EEF4E03197FC
S11301C0F1F700C00000AA9895B39F7095BB95B352
S11301D08295807F892B85BBA89AA998AA9A81EEDB
S11301E094E00197F1F700C00000AA98089580E810
S11301F00E9497000895CF93DF93EC0188818823B0
S113020031F021960E94D20089918111FBCFDF91B8
S1130210CF910895823071F018F4813031F008954F
S1130220833069F0843081F008958FE7860F0E944F
S1130230970008958FEB860F0E949700089583E935
S1130240860F0E949700089583ED860F0E94970001
S113025008950F931F93CF93DF938A01E9018823B5
S113026011F0611103C00E94F70002C00E940A014C
S1130270C530D105C9F49801329522952F702327F2
S11302803F702327A7E4B3E00E94880596958795DD
S11302909695879596958795C096909390008093B0
S11302A08F000E94D20004C0C430D10509F0C3C03D
S11302B09801369527953695279536952795A5EC7B
S11302C0B0E20E948805AC01529542954F704527D3
S11302D05F70452750939300409392009A01ADECD0
S11302E0BCEC0E948805969587959695879596957A
S11302F087959C01220F331F880F991F880F991F20
S1130300880F991F820F931F9A01281B390BC9016B
S1130310C09690939F0080939E000E94D200980103
S11303203695279536952795ABE7B4E10E94880565
S1130330AC015695479550939300409392009A01CF
S1130340ADECBCEC0E9488059695879596958795AB
S1130350969587959C01220F331F880F991F880F4C
S1130360991F880F991F820F931F9A01281B390B1D
S1130370C901C09690939B0080939A000E94D2007A
S113038004C0C230D10509F05BC09801ADECBCECEF
S11303900E948805AC015695479556954795569504
S11303A0479550939300409392009A010E948805C8
S11303B09695879596958795969587959C01220F96
S11303C0331F880F991F880F991F880F991F820F59
S11303D0931F9A01281B390BC901C0969093990069
S11303E0809398000E94D2009801ADECBCEC0E946E
S11303F088059695879596958795969587959C01FA
S1130400220F331F880F991F880F991F880F991F78
S1130410820F931F9801281B390BC901C096909332
S11304209D0080939C000E94D20026976CF085E486
S11304300E94D20009C0C330D10509F0A2CF6FCF0A
S1130440C130D10591F7D0CFDF91CF911F910F919A
S113045008951BBC8ABD19BC68BD089587B38F601D
S113046087BB88B3807F88BB81B3806381BB82B341
S1130470806382BB089598B3907F8F70982B98BB4C
S1130480089586E00E943B02089516B880E287B979
S113049080E888B986E886B908951ABA1BBA08951F
S11304A08770806287B9369A349BFECF85B1349ABF
S11304B008951EBC8FEF8DBD91E09CBD1BBC8ABD11
S11304C019BC88BD17BC86BD81EA8FBD8DE08EBD89
S11304D00895F8940E9449000E9445020E944D022A
S11304E00E9459020E942E0278940E9450000E9499
S11304F0BC00089540919100469546954093910023
S113050080919400869586958093940020918E0026
S11305102695269520938E004217C0F030E090E097
S1130520821B930B50E0BA01621B730B861797076B
S11305301CF4C901841B950B90938D0080938C004F
S1130540089510928D0010928C000895821730F750
S1130550F8CFCF92DF92EF92FF92CF93DF93C090C8
S11305608200D0908300E0908400F090850020E029
S113057030E0A901C701B6010E941605181694F4CB
S1130580C701B6010E942E046333710514F062E3BF
S113059070E0772314F460E070E042E3C42FC61BDC
S11305A0D2E320C020E030E0A901C701B6010E94D7
S11305B0290488239CF4C701B60190580E942E0494
S11305C06333710514F062E370E0772314F460E0A0
S11305D070E042E3D42FD61BC2E304C0C0916E0086
S11305E0D0916C006C2F8D2F0E9429024D2F50E06A
S11305F023E030E061E082E00E9429014C2F50E0CA
S113060023E030E065E082E00E942901DF91CF9190
S1130610FF90EF90DF90CF9008950E94690280E7E9
S113062090E00E94FB002FE38DE093E02150804096
S11306309040E1F700C000000E94BC000E9441020B
S113064060916E0080916C000E94290283E00E94F8
S113065050028093910084E00E94500280938E00A7
S113066085E00E945002809394000E947A02409197
S1130670910050E023E030E061E081E00E94290134
S113068040918E0050E023E030E065E081E00E947C
S113069029014091940050E023E030E069E081E0DA
S11306A00E942901C0918C00D0918D004091880056
S11306B0509189008E01040F151F10938900009337
S11306C0880080918A0090918B007E01E81AF90AD3
S11306D0F0928700E0928600BE010D2E000C880B7C
S11306E0990B0E9466042091680030916900409142
S11306F06A0050916B000E941B054B015C01B8011C
S1130700110F880B990B0E946604209164003091AC
S1130710650040916600509167000E941B059B0193
S1130720AC01C501B4010E94BD034B015C01B701DA
S1130730FF0C880B990B0E94660420916000309195
S1130740610040916200509163000E941B059B016F
S1130750AC01C501B4010E94BD0360938200709393
S113076083008093840090938500D0938B00C09382
S11307708A000E94A9026ACF5058BB27AA270E9468
S1130780D4030C94DC040E94CE0438F00E94D504F7
S113079020F039F49F3F19F426F40C94CB040EF4A2
S11307A0E095E7FB0C94C504E92F0E94ED0458F38F
S11307B0BA17620773078407950720F079F4A6F542
S11307C00C940F050EF4E0950B2EBA2FA02D0B01FF
S11307D0B90190010C01CA01A0011124FF27591B82
S11307E099F0593F50F4503E68F11A16F040A22F88
S11307F0232F342F4427585FF3CF469537952795F9
S1130800A795F0405395C9F77EF41F16BA0B620BF7
S1130810730B840BBAF09150A1F0FF0FBB1F661F3E
S1130820771F881FC2F70EC0BA0F621F731F841F81
S113083048F4879577956795B795F7959E3F08F0A7
S1130840B0CF9395880F08F09927EE0F9795879569
S113085008950E94A10408F481E008950E943504DB
S11308606894B1110C94100508950E94F50488F061
S11308709F5798F0B92F9927B751B0F0E1F0660F60
S1130880771F881F991F1AF0BA95C9F714C0B130A1
S113089091F00E940F05B1E008950C940F05672FA5
S11308A0782F8827B85F39F0B93FCCF386957795D0
S11308B06795B395D9F73EF49095809570956195B9
S11308C07F4F8F4F9F4F0895E89409C097FB3EF4E4
S11308D090958095709561957F4F8F4F9F4F992389
S11308E0A9F0F92F96E9BB279395F6958795779507
S11308F06795B795F111F8CFFAF4BB0F11F460FFC7
S11309001BC06F5F7F4F8F4F9F4F16C0882311F01E
S113091096E911C0772321F09EE8872F762F05C032
S1130920662371F096E8862F70E060E02AF09A95CD
S1130930660F771F881FDAF7880F9695879597F9C2
S11309400895990F0008550FAA0BE0E8FEEF16165C
S11309501706E807F907C0F012161306E407F507AF
S113096098F0621B730B840B950B39F40A2661F023
S1130970232B242B252B21F408950A2609F4A140C6
S1130980A6958FEF811D811D089597F99F6780E8D3
S113099070E060E008959FEF80EC089500240A94CD
S11309A01616170618060906089500240A94121646
S11309B01306140605060895092E0394000C11F479
S11309C0882352F0BB0F40F4BF2B11F460FF04C026
S11309D06F5F7F4F8F4F9F4F089557FD9058440F7F
S11309E0551F59F05F3F71F04795880F97FB991F8A
S11309F061F09F3F79F08795089512161306140647
S1130A00551FF2CF4695F1DF08C0161617061806D3
S1130A10991FF1CF86957105610508940895E894AE
S1130A20BB2766277727CB0197F908950E94A10475
S1130A3008F48FEF08950E942E050C94DC040E94A4
S1130A40CE0438F00E94D50420F0952311F00C94C4
S1130A50C5040C94CB0411240C9410050E94ED04DD
S1130A6070F3959FC1F3950F50E0551F629FF001FD
S1130A70729FBB27F00DB11D639FAA27F00DB11D16
S1130A80AA1F649F6627B00DA11D661F829F22279F
S1130A90B00DA11D621F739FB00DA11D621F839F26
S1130AA0A00D611D221F749F3327A00D611D231FFC
S1130AB0849F600D211D822F762F6A2F11249F574A
S1130AC050409AF0F1F088234AF0EE0FFF1FBB1F4D
S1130AD0661F771F881F91505040A9F79E3F51050C
S1130AE080F00C94C5040C9410055F3FE4F3983E29
S1130AF0D4F3869577956795B795F795E7959F5FB6
S1130B00C1F7FE2B880F911D9695879597F9089547
S1130B10A29FB001B39FC001A39F700D811D11243A
S1130B20911DB29F700D811D1124911D0895F8949B
S1050B30FFCFF1
S1130B32000020C1CDCCCC3D0000A04032003200E8
S1130B425374617274696E6720535041524B20563C
S1050B5200009D
S9030000FC
