:100000000C942A000C9447000C9447000C94470071
:100010000C9447000C9447000C9447000C94470044
:100020000C9447000C9447000C9447000C94470034
:100030000C9447000C9447000C9447000C94470024
:100040000C9447000C9447000C9447000C94470014
:100050000C94470011241FBECFE5D4E0DEBFCDBF16
:1000600010E0A0E6B0E0ECE9FAE002C005900D92E5
:10007000A238B107D9F720E0A2E8B0E001C01D9294
:10008000A23AB207E1F70E9412030C944C050C94BB
:10009000000084B3876F84BB85B3807885BB0895E7
:1000A00089EF90E00197F1F700C00000A898A998A7
:1000B00080E385BBAA9AE1EEF4E03197F1F700C046
:1000C0000000AA98E9EFF0E03197F1F700C00000D6
:1000D000A898A99885BBAA9AE1EEF4E03197F1F7C8
:1000E00000C00000AA98E9EFF0E03197F1F700C0F6
:1000F0000000A898A99885BBAA9A81EE94E0019780
:10010000F1F700C00000AA98E9EFF0E03197F1F7AD
:1001100000C00000A898A99880E285BBAA9A81EE49
:1001200094E00197F1F700C00000AA98089595B3F4
:100130009F7095BB95B3282F207F922B95BBA898D5
:10014000A998AA9AE1EEF4E03197F1F700C0000017
:10015000AA9895B39F7095BB95B38295807F892BA4
:1001600085BBA898A998AA9A81EE94E00197F1F727
:1001700000C00000AA98089589EF90E00197F1F778
:1001800000C0000088E20E94970081E00E94970072
:1001900086E00E9497008EE00E94970080E80E940F
:1001A0009700089595B39F7095BB95B3282F207F36
:1001B000922B95BBA89AA998AA9AE1EEF4E0319700
:1001C000F1F700C00000AA9895B39F7095BB95B356
:1001D0008295807F892B85BBA89AA998AA9A81EEDF
:1001E00094E00197F1F700C00000AA98089580E814
:1001F0000E9497000895CF93DF93EC0188818823B4
:1002000031F021960E94D20089918111FBCFDF91BC
:10021000CF910895823071F018F4813031F0089553
:10022000833069F0843081F008958FE7860F0E9453
:10023000970008958FEB860F0E949700089583E939
:10024000860F0E949700089583ED860F0E94970005
:1002500008950F931F93CF93DF938A01E9018823B9
:1002600011F0611103C00E94F70002C00E940A0150
:10027000C530D105C9F49801329522952F702327F6
:100280003F702327A7E4B3E00E943D05969587952C
:100290009695879596958795C096909392008093B2
:1002A00091000E94D20004C0C430D10509F0C3C03F
:1002B0009801369527953695279536952795A5EC7F
:1002C000B0E20E943D05AC01529542954F70452722
:1002D0005F70452750939500409394009A01ADECD0
:1002E000BCEC0E943D0596958795969587959695C9
:1002F00087959C01220F331F880F991F880F991F24
:10030000880F991F820F931F9A01281B390BC9016F
:10031000C0969093A1008093A0000E94D200980103
:100320003695279536952795ABE7B4E10E943D05B4
:10033000AC015695479550939500409394009A01CF
:10034000ADECBCEC0E943D059695879596958795FA
:10035000969587959C01220F331F880F991F880F50
:10036000991F880F991F820F931F9A01281B390B21
:10037000C901C09690939D0080939C000E94D2007A
:1003800004C0C230D10509F05BC09801ADECBCECF3
:100390000E943D05AC015695479556954795569553
:1003A000479550939500409394009A010E943D0513
:1003B0009695879596958795969587959C01220F9A
:1003C000331F880F991F880F991F880F991F820F5D
:1003D000931F9A01281B390BC901C09690939B006B
:1003E00080939A000E94D2009801ADECBCEC0E9470
:1003F0003D059695879596958795969587959C0149
:10040000220F331F880F991F880F991F880F991F7C
:10041000820F931F9801281B390BC901C096909336
:100420009F0080939E000E94D20026976CF085E486
:100430000E94D20009C0C330D10509F0A2CF6FCF0E
:10044000C130D10591F7D0CFDF91CF911F910F919E
:1004500008951BBC8ABD19BC68BD089587B38F6021
:1004600087BB88B3807F88BB81B3806381BB82B345
:10047000806382BB089598B3907F8F70982B98BB50
:10048000089586E00E943B02089516B880E287B97D
:1004900080E888B986E886B908951ABA1BBA089523
:1004A0008770806287B9369A349BFECF85B1349AC3
:1004B00008951EBC8FEF8DBD91E09CBD1BBC8ABD15
:1004C00019BC88BD17BC86BD81EA8FBD8DE08EBD8D
:1004D0000895F8940E9449000E9445020E944D022E
:1004E0000E9459020E942E0278940E9450000E949D
:1004F000BC000895209193002695269520939300A3
:100500009091960096959695909396008091900084
:100510008695869580939000492F50E0421B5109A3
:1005200050938F0040938E008E3130F441E050E0C4
:100530005093830040938200853020F4953010F46E
:10054000253030F08F3140F09F3130F02F3120F0E6
:1005500010928F0010928E000895CF92DF92EF924A
:10056000FF920F931F93CF93DF9360916C00709174
:100570006D00C0908400D0908500E0908600F090DF
:10058000870000916E0010916F0080918200909121
:1005900083000197D9F0072E000C880B990B0E945D
:1005A0004404A70196010E94A7030E941304D62FBA
:1005B000B801110F880B990B0E944404A701960102
:1005C0000E94A6030E941304C62F0FC090919300AF
:1005D00080919600891718F0DDE2C0E002C0D0E0FB
:1005E000CDE210928300109282006C2F8D2F0E941A
:1005F00029024D2F50E023E030E061E082E00E94CC
:1006000029014C2F50E023E030E065E082E00E94B9
:100610002901DF91CF911F910F91FF90EF90DF9013
:10062000CF9008950E94690280E790E00E94FB004D
:100630002FE38DE093E0215080409040E1F700C02F
:1006400000000E94BC000E94410260916E008091F7
:100650006C000E94290283E00E9450028093930064
:1006600084E00E9450028093900085E00E94500236
:10067000809396000E947A02C0918E00D0918F00E4
:1006800040918A0050918B008E01040F151F10932A
:100690008B0000938A0080918C0090918D007E01E8
:1006A000E81AF90AF0928900E0928800BE010D2E46
:1006B000000C880B990B0E94440420916800309133
:1006C000690040916A0050916B000E94D0044B0178
:1006D0005C01B801110F880B990B0E944404209112
:1006E00064003091650040916600509167000E945F
:1006F000D0049B01AC01C501B4010E94A7034B01CA
:100700005C01B701FF0C880B990B0E9444042091F7
:1007100060003091610040916200509163000E943E
:10072000D0049B01AC01C501B4010E94A7036093F2
:100730008400709385008093860090938700D09307
:100740008D00C0938C000E94AD0285CF5058BB270E
:10075000AA270E94BE030C9496040E94880438F0D5
:100760000E948F0420F039F49F3F19F426F40C9472
:1007700085040EF4E095E7FB0C947F04E92F0E94BA
:10078000A70458F3BA17620773078407950720F088
:1007900079F4A6F50C94C9040EF4E0950B2EBA2F4B
:1007A000A02D0B01B90190010C01CA01A001112477
:1007B000FF27591B99F0593F50F4503E68F11A1623
:1007C000F040A22F232F342F4427585FF3CF4695B4
:1007D00037952795A795F0405395C9F77EF41F16D6
:1007E000BA0B620B730B840BBAF09150A1F0FF0FA0
:1007F000BB1F661F771F881FC2F70EC0BA0F621F8C
:10080000731F841F48F4879577956795B795F7957B
:100810009E3F08F0B0CF9395880F08F09927EE0F10
:100820009795879508950E94AF0488F09F5798F098
:10083000B92F9927B751B0F0E1F0660F771F881FE5
:10084000991F1AF0BA95C9F714C0B13091F00E94FF
:10085000C904B1E008950C94C904672F782F882744
:10086000B85F39F0B93FCCF3869577956795B39526
:10087000D9F73EF490958095709561957F4F8F4F95
:100880009F4F0895E89409C097FB3EF4909580959A
:10089000709561957F4F8F4F9F4F9923A9F0F92F46
:1008A00096E9BB279395F695879577956795B795C4
:1008B000F111F8CFFAF4BB0F11F460FF1BC06F5FAA
:1008C0007F4F8F4F9F4F16C0882311F096E911C0BC
:1008D000772321F09EE8872F762F05C0662371F0DD
:1008E00096E8862F70E060E02AF09A95660F771FF1
:1008F000881FDAF7880F9695879597F9089597F9E5
:100900009F6780E870E060E008959FEF80EC0895B5
:1009100000240A94161617061806090608950024DE
:100920000A9412161306140605060895092E039458
:10093000000C11F4882352F0BB0F40F4BF2B11F4CC
:1009400060FF04C06F5F7F4F8F4F9F4F089557FD2B
:100950009058440F551F59F05F3F71F04795880F2D
:1009600097FB991F61F09F3F79F0879508951216C4
:1009700013061406551FF2CF4695F1DF08C0161670
:1009800017061806991FF1CF869571056105089421
:100990000895E894BB2766277727CB0197F9089538
:1009A0000E94E3040C9496040E94880438F00E948C
:1009B0008F0420F0952311F00C947F040C9485048F
:1009C00011240C94CA040E94A70470F3959FC1F3EC
:1009D000950F50E0551F629FF001729FBB27F00DED
:1009E000B11D639FAA27F00DB11DAA1F649F662742
:1009F000B00DA11D661F829F2227B00DA11D621F91
:100A0000739FB00DA11D621F839FA00D611D221F4A
:100A1000749F3327A00D611D231F849F600D211D2E
:100A2000822F762F6A2F11249F5750409AF0F1F0B1
:100A300088234AF0EE0FFF1FBB1F661F771F881F1A
:100A400091505040A9F79E3F510580F00C947F04CF
:100A50000C94CA045F3FE4F3983ED4F386957795EF
:100A60006795B795F795E7959F5FC1F7FE2B880FC0
:100A7000911D9695879597F90895A29FB001B39F10
:100A8000C001A39F700D811D1124911DB29F700D97
:0C0A9000811D1124911D0895F894FFCFE2
:100A9C000000803F0AD7A33C0000A0402D002D0091
:100AAC005374617274696E6720535041524B2056D7
:020ABC00000038
:00000001FF
