:100000000C942A000C9447000C9447000C94470071
:100010000C9447000C9447000C9447000C94470044
:100020000C9447000C9447000C9447000C94470034
:100030000C9447000C9447000C9447000C94470024
:100040000C9447000C9447000C9447000C94470014
:100050000C94470011241FBECFE5D4E0DEBFCDBF16
:1000600010E0A0E6B0E0E2E4FBE002C005900D92F3
:10007000AA37B107D9F720E0AAE7B0E001C01D9286
:10008000AE39B207E1F70E944C030C949F050C9423
:10009000000084B3876F84BB85B3807885BB0895E7
:1000A00089EF90E00197F1F700C00000A898A998A7
:1000B00080E385BBAA9AE1EEF4E03197F1F700C046
:1000C0000000AA98E9EFF0E03197F1F700C00000D6
:1000D000A898A99885BBAA9AE1EEF4E03197F1F7C8
:1000E00000C00000AA98E9EFF0E03197F1F700C0F6
:1000F0000000A898A99885BBAA9A81EE94E0019780
:10010000F1F700C00000AA98E9EFF0E03197F1F7AD
:1001100000C00000A898A99880E285BBAA9A81EE49
:1001200094E00197F1F700C00000AA98089595B3F4
:100130009F7095BB95B3282F207F922B95BBA898D5
:10014000A998AA9AE1EEF4E03197F1F700C0000017
:10015000AA9895B39F7095BB95B38295807F892BA4
:1001600085BBA898A998AA9A81EE94E00197F1F727
:1001700000C00000AA98089589EF90E00197F1F778
:1001800000C0000088E20E94970081E00E94970072
:1001900086E00E9497008EE00E94970080E80E940F
:1001A0009700089595B39F7095BB95B3282F207F36
:1001B000922B95BBA89AA998AA9AE1EEF4E0319700
:1001C000F1F700C00000AA9895B39F7095BB95B356
:1001D0008295807F892B85BBA89AA998AA9A81EEDF
:1001E00094E00197F1F700C00000AA98089580E814
:1001F0000E9497000895CF93DF93EC0188818823B4
:1002000031F021960E94D20089918111FBCFDF91BC
:10021000CF910895823071F018F4813031F0089553
:10022000833069F0843081F008958FE7860F0E9453
:10023000970008958FEB860F0E949700089583E939
:10024000860F0E949700089583ED860F0E94970005
:1002500008950F931F93CF93DF938A01E9018823B9
:1002600011F0611103C00E94F70002C00E940A0150
:10027000C530D105C9F49801329522952F702327F6
:100280003F702327A7E4B3E00E94900596958795D9
:100290009695879596958795C09690938E008093B6
:1002A0008D000E94D20004C0C430D10509F0C3C043
:1002B0009801369527953695279536952795A5EC7F
:1002C000B0E20E949005AC01529542954F704527CF
:1002D0005F70452750939100409390009A01ADECD8
:1002E000BCEC0E9490059695879596958795969576
:1002F00087959C01220F331F880F991F880F991F24
:10030000880F991F820F931F9A01281B390BC9016F
:10031000C09690939D0080939C000E94D20098010B
:100320003695279536952795ABE7B4E10E94900561
:10033000AC015695479550939100409390009A01D7
:10034000ADECBCEC0E9490059695879596958795A7
:10035000969587959C01220F331F880F991F880F50
:10036000991F880F991F820F931F9A01281B390B21
:10037000C901C09690939900809398000E94D20082
:1003800004C0C230D10509F05BC09801ADECBCECF3
:100390000E949005AC015695479556954795569500
:1003A000479550939100409390009A010E949005C8
:1003B0009695879596958795969587959C01220F9A
:1003C000331F880F991F880F991F880F991F820F5D
:1003D000931F9A01281B390BC901C096909397006F
:1003E000809396000E94D2009801ADECBCEC0E9474
:1003F00090059695879596958795969587959C01F6
:10040000220F331F880F991F880F991F880F991F7C
:10041000820F931F9801281B390BC901C096909336
:100420009B0080939A000E94D20026976CF085E48E
:100430000E94D20009C0C330D10509F0A2CF6FCF0E
:10044000C130D10591F7D0CFDF91CF911F910F919E
:1004500008951BBC8ABD19BC68BD089587B38F6021
:1004600087BB88B3807F88BB81B3806381BB82B345
:10047000806382BB089598B3907F8F70982B98BB50
:10048000089586E00E943B02089589E00E943B02A5
:10049000089585E00E943B0208958AE00E943B0295
:1004A000089516B880E287B980E888B986E886B9E9
:1004B00008951ABA1BBA08958770806287B9369A70
:1004C000349BFECF85B1349A08951EBC8FEF8DBD4D
:1004D00091E09CBD1BBC8ABD19BC88BD17BC86BD04
:1004E00081EA8FBD8DE08EBD0895F8940E94490089
:1004F0000E9451020E9459020E9465020E942E022F
:1005000078940E9450000E94BC000895CF93DF931E
:100510002091920030918F00822F90E0831B9109EF
:1005200090938B0080938A0080918C00853650F0E8
:10053000243140F4343130F441E050E050937F00F6
:1005400040937E00843050F4243040F4343030F452
:1005500068E788E70E9429020E94450280918C008A
:10056000813590F080919200813570F080918F00FC
:10057000813550F0C5E0D0E068E788E70E942902A5
:100580000E9441022197C1F7809192008D3370F053
:1005900080918F008D3350F080918C008F3030F43B
:1005A00068E788E70E9429020E944102DF91CF910B
:1005B000089580917E0090917F00019759F460EF3B
:1005C00080EF0E9429020E94410210927F00109247
:1005D0007E0033C090918F00809192008917B0F413
:1005E00020E030E040EF51E46091800070918100A4
:1005F00080918200909183000E94FA030E94660419
:10060000862F0E9429020E94490217C09817A8F459
:1006100020E030E040EF51E4609180007091810073
:1006200080918200909183000E94FA030E946604E8
:10063000862F0E9429020E944D0220E030E040EF08
:1006400052E46091800070918100809182009091CD
:1006500083000E94FA030E94660423E030E0AB01AD
:1006600061E082E00E94290120E030E040EF52E4A6
:100670006091800070918100809182009091830050
:100680000E94FA030E94660423E030E0AB0165E0BB
:1006900082E00E94290108950E94750288E690E098
:1006A0000E94FB002FE38DE093E0215080409040BA
:1006B000E1F700C000000E94BC000E94410268E710
:1006C00088E70E94290283E00E945C0280938F00E9
:1006D00084E00E945C0280938C0085E00E945C02B2
:1006E000809392000E94860240918F0050E023E0A8
:1006F00030E061E081E00E94290140918C0050E0EF
:1007000023E030E065E081E00E9429014091920001
:1007100050E023E030E069E081E00E942901C091CF
:100720008A00D0918B0040918600509187008E0105
:10073000040F151F10938700009386008091880096
:10074000909189007E01E81AF90AF0928500E09202
:100750008400BE010D2E000C880B990B0E9497049B
:1007600020916400309165004091660050916700CF
:100770000E9423054B015C01B801110F880B990BF6
:100780000E94970420917A0030917B0040917C0078
:1007900050917D000E9423059B01AC01C501B4016D
:1007A0000E94FA034B015C01B701FF0C880B990B07
:1007B0000E94970420916000309161004091620096
:1007C000509163000E9423059B01AC01C501B40157
:1007D0000E94FA03609380007093810080938200EE
:1007E00090938300D0938900C09388000E94D9021F
:1007F0006ACF5058BB27AA270E9411040C94E90421
:100800000E94DB0438F00E94E20420F039F49F3F9C
:1008100019F426F40C94D8040EF4E095E7FB0C943C
:10082000D204E92F0E94FA0458F3BA17620773073B
:100830008407950720F079F4A6F50C941C050EF4B6
:10084000E0950B2EBA2FA02D0B01B90190010C01E0
:10085000CA01A0011124FF27591B99F0593F50F4F8
:10086000503E68F11A16F040A22F232F342F442750
:10087000585FF3CF469537952795A795F040539548
:10088000C9F77EF41F16BA0B620B730B840BBAF018
:100890009150A1F0FF0FBB1F661F771F881FC2F783
:1008A0000EC0BA0F621F731F841F48F48795779597
:1008B0006795B795F7959E3F08F0B0CF9395880F51
:1008C00008F09927EE0F9795879508950E940205E5
:1008D00088F09F5798F0B92F9927B751B0F0E1F001
:1008E000660F771F881F991F1AF0BA95C9F714C0B1
:1008F000B13091F00E941C05B1E008950C941C05E4
:10090000672F782F8827B85F39F0B93FCCF38695E9
:1009100077956795B395D9F73EF490958095709546
:1009200061957F4F8F4F9F4F0895E89409C097FBC3
:100930003EF490958095709561957F4F8F4F9F4FB6
:100940009923A9F0F92F96E9BB279395F6958795FA
:1009500077956795B795F111F8CFFAF4BB0F11F4BD
:1009600060FF1BC06F5F7F4F8F4F9F4F16C0882364
:1009700011F096E911C0772321F09EE8872F762F9A
:1009800005C0662371F096E8862F70E060E02AF0DB
:100990009A95660F771F881FDAF7880F96958795C7
:1009A00097F9089597F99F6780E870E060E00895EF
:1009B0009FEF80EC089500240A9416161706180677
:1009C0000906089500240A94121613061406050653
:1009D0000895092E0394000C11F4882352F0BB0FE4
:1009E00040F4BF2B11F460FF04C06F5F7F4F8F4F47
:1009F0009F4F089557FD9058440F551F59F05F3F82
:100A000071F04795880F97FB991F61F09F3F79F030
:100A100087950895121613061406551FF2CF4695B2
:100A2000F1DF08C0161617061806991FF1CF869534
:100A30007105610508940895E894BB276627772718
:100A4000CB0197F908950E9436050C94E9040E94A1
:100A5000DB0438F00E94E20420F0952311F00C949E
:100A6000D2040C94D80411240C941D050E94FA049D
:100A700070F3959FC1F3950F50E0551F629FF001F1
:100A8000729FBB27F00DB11D639FAA27F00DB11D0A
:100A9000AA1F649F6627B00DA11D661F829F222793
:100AA000B00DA11D621F739FB00DA11D621F839F1A
:100AB000A00D611D221F749F3327A00D611D231FF0
:100AC000849F600D211D822F762F6A2F11249F573E
:100AD00050409AF0F1F088234AF0EE0FFF1FBB1F41
:100AE000661F771F881F91505040A9F79E3F510500
:100AF00080F00C94D2040C941D055F3FE4F3983E03
:100B0000D4F3869577956795B795F795E7959F5FA9
:100B1000C1F7FE2B880F911D9695879597F908953B
:100B2000A29FB001B39FC001A39F700D811D11242E
:100B3000911DB29F700D811D1124911D0895F8948F
:020B4000FFCFE5
:100B4200000020410000E0405374617274696E67D6
:0A0B520020535041524B2056000082
:00000001FF
